:020000040800F2
:10000000A8110020855C0008E1020008E302000856
:10001000E7020008EB020008EF0200080000000001
:10002000000000000000000000000000F3020008D3
:10003000F502000800000000F7020008F9020008BD
:100040009F5C00089F5C00089F5C00089F5C0008A4
:100050009F5C00089F5C00089F5C00089F5C000894
:100060009F5C00089F5C00089F5C00089F5C000884
:100070001D1C00089F5C00089F5C00089F5C000836
:100080009F5C00089F5C00089F5C00089F5C000864
:10009000932100089F5C00089F5C00089F5C00089B
:1000A0009F5C00089F5C00089F5C00089F5C000844
:1000B0009F5C00081F2500089F5C00089F5C0008EB
:1000C0009F5C00089F5C00089F5C00089F5C000824
:1000D0009F5C00089F5C0008012800089F5C0008E6
:1000E0009F5C00089F5C00089F5C00089F5C000804
:1000F0009F5C00089F5C00089F5C00089F5C0008F4
:100100009F5C00089F5C00089F5C00089F5C0008E3
:100110009F5C00089F5C00089F5C00089F5C0008D3
:100120009F5C00089F5C0008B12300089F5C0008EA
:100130009F5C00089F5C00089F5C00089F5C0008B3
:100140009F5C00089F5C00089F5C00089F5C0008A3
:100150009F5C00089F5C00089F5C0008EF2F000870
:100160009F5C00089F5C00089F5C00089F5C000883
:100170009F5C00089F5C00089F5C00089F5C000873
:100180009F5C00089F5C00089F5C00089F5C000863
:100190009F5C00089F5C00089F5C00089F5C000853
:1001A00000000000000000009F5C000800F002F862
:1001B00000F05CF80AA090E8000C82448344AAF1A5
:1001C0000107DA4501D100F051F8AFF2090EBAE8A3
:1001D0000F0013F0010F18BFFB1A43F0010318477B
:1001E000C86B0000E86B00000A444FF0000C10F8E8
:1001F000013B13F0070408BF10F8014B1D1108BFA5
:1002000010F8015B641E05D010F8016B641E01F844
:10021000016BF9D113F0080F1EBF10F8014BAD1C94
:100220000C1B09D16D1E58BF01F801CBFAD505E0B2
:1002300014F8016B01F8016B6D1EF9D59142D6D30C
:10024000704700000023002400250026103A28BF34
:1002500078C1FBD8520728BF30C148BF0B60704738
:100260001FB506F090FB1FBD10B510BD05F0EDFDEC
:100270001146FFF7F5FF00F009F805F00BFE03B497
:10028000FFF7F2FF03BC05F00FFE0000B42003F0FF
:1002900045F800F08DF900F053F94FF4FA7003F0CF
:1002A0009FF801200A49086017200A4908800DE0DC
:1002B0000948407A032809D143F2C821074805F0CC
:1002C0002AF943F2C821054805F027F9F0E70000B4
:1002D0009C0242429A0000205E0900200018004063
:1002E000704700BFFEE700BFFEE700BFFEE700BFAC
:1002F000FEE7704770477047704700000CB500205C
:10030000019000908348006840F480308149086083
:1003100000BF8048006800F4003000900198401C45
:100320000190009818B90198B0F5A04FF1D1794823
:10033000006800F4003010B10120009001E00020BE
:1003400000900098012860D172484030006840F069
:1003500080507049403108606F48006840F4404068
:100360006D4908606B48083000686A4908310860C8
:100370000846006840F4004008600846006840F401
:10038000A05008606548091F0860081F006840F019
:100390008070091F086000BF5E48006800F00070B0
:1003A0000028F9D05C48006840F480305A49086061
:1003B00000BF5948406800F480300028F9D0564802
:1003C000006840F400305449086000BF524840685B
:1003D00000F400300028F9D040F205705049086060
:1003E0004C480830006820F003004A490831086092
:1003F0000846006840F00200086000BF4548083029
:10040000006800F00C000828F8D10CBD10B5454874
:10041000006840F47000434908603E48006840F0BE
:1004200001003C49086000203A4908310860394819
:1004300000683D490840374908603C48091D08608C
:10044000081F006820F48020091F0860002031493F
:100450000C310860FFF752FF4FF0006031498039DE
:10046000086010BD70B50020002202230024022184
:10047000284D08352D6805F00C0020B1042806D061
:10048000082834D107E02A4D2A4E356033E02A4D42
:10049000284E35602FE01F4D2D1D2D68C5F380546B
:1004A0001C4D2D1D2D6805F03F0154B1224DB5FBAB
:1004B000F1F5184E361D3668C6F3881605FB06F2B0
:1004C00009E01B4DB5FBF1F5124E361D3668C6F33B
:1004D000881605FB06F20F4D2D1D2D68C5F301454D
:1004E0006D1C6B00B2FBF3F5124E356003E0104D4E
:1004F000104E356000BF00BF064D08352D68C5F3AE
:1005000003150E4E705D0B4D2D68C540094E3560CC
:1005100070BD000000380240007000400C5A4007D7
:10052000003C024088ED00E0FFFFF6FE10300024A2
:100530000024F40000000020001BB700040000208D
:1005400010B54FF4407002F06BFF01F05FFC01F05A
:10055000B5FC01F097FC01F0F5FC01F0A7FE02F0FC
:1005600009FC01F0D9FA02F0E5FB01F0ABFF02F063
:1005700009F843F2C8218B4804F0CDFF43F2C821AB
:10058000884804F0CAFF3221874804F0C4FF3221B2
:10059000854804F0C2FF3221834804F0C0FF3221B5
:1005A000814804F0BEFF4FF4E13002F09BF810BD2B
:1005B00010B59FED7E7B9FED7F6B9FED805B9FED88
:1005C000814B9FED7C3B9FED7B2B9FED801B9FED37
:1005D000810B824800F000FF9FED747B9FED756BEF
:1005E0009FED765B9FED774B9FED723B9FED712BFF
:1005F0009FED761B9FED770B794800F0EDFE9FEDA8
:100600006B7B9FED6C6B9FED6D5B9FED6E4B9FED7C
:10061000693B9FED682B9FED6D1B9FED6E0B714845
:1006200000F0DAFE9FED617B9FED626B9FED635BF7
:100630009FED644B9FED5F3B9FED5E2B9FED631B3A
:100640009FED640B684800F0C7FE9FED587B9FED5F
:10065000596B9FED605B9FED654B9FED563B9FEDAA
:10066000552B9FED541B9FED630B644800F0B4FEC7
:100670009FED637B9FED4F6B9FED4E5B9FED624B5C
:100680009FED4C3B9FED4B2B9FED4A1B9FED600B6D
:10069000614800F0A1FE9FED617B9FED466B9FEDF1
:1006A000615B9FED624B9FED433B9FED622B9FEDA6
:1006B000411B9FED620B634800F08EFE9FED627B55
:1006C0009FED636B9FED3B5B9FED544B9FED393B83
:1006D0009FED382B9FED601B9FED610B624800F092
:1006E0007BFE9FED597B9FED616B9FED5D5B9FED09
:1006F0004B4B9FED303B9FED5F2B9FED2E1B9FEDF6
:100700005F0B604800F068FE9FED287B9FED5E6BFD
:100710009FED3D5B9FED2B4B9FED263B9FED252BEA
:100720009FED241B9FED5A0B5B4800F055FE9FED9B
:100730005B7B9FED5C6B9FED1F5B9FED3C4B9FEDEB
:100740001D3B9FED5A2B9FED1B1B9FED450B594801
:1007500000F042FE9FED587B9FED166B9FED175BFF
:100760009FED574B9FED133B9FED322B9FED111BE0
:100770009FED550B564800F02FFE9FED517B9FEDEE
:100780000D6B9FED0E5B9FED194B9FED0A3B9FEDAF
:100790004E2B9FED501B9FED270B504800F01CFE89
:1007A00010BD0000001800400000014000000000E3
:1007B0000070B740000000000000000000000000D2
:1007C00000005940000000000040AF4066666666C9
:1007D0006666E63F00000000000024405001002053
:1007E000D001002050020020D002002000000000B4
:1007F00000409F409A9999999999D93F50030020B8
:10080000000000000000C04000000000000049405F
:100810009A9999999999E93F5007002000000000A2
:10082000004CCD40000000000000344000000000FB
:100830000094B140000000000000004000000000F3
:100840000000F83FD00300200000000000209C4082
:100850000000000000C082407B14AE47E17A843F74
:1008600000000000000014405004002000000000C0
:1008700000406F400000000000005440666666665D
:1008800066660240D00400200000000000007940AD
:10089000000000000000E03F5005002000000000C4
:1008A0000038B8400000000000C0724000000000A6
:1008B00000003E40D00500200000000000C0CE40F7
:1008C000000000000070C740000000000000104061
:1008D000D006002000000000000018405006002054
:1008E00010B5FE480068401CFC49086008460068D6
:1008F000B0F5FA5F07D90846006842F2283188420D
:1009000001D202F02FFAF548006842F210718842D5
:1009100009D9F248006842F60411884203D2F0482F
:100920000089F0490880ED48006842F604118842C9
:1009300022D9EA4800684FF4FA71B0FBF1F201FBEA
:10094000120050B90020E8490870E848006808B96A
:10095000012000E00020E5490860E048006840F61A
:10096000B831B0FBF1F201FB120028B9E048008871
:10097000404200B2DE49088010BD10B5DD4890ED60
:100980000A1BB0EE410AF0EE610A9FEDDB1B53EC4F
:10099000112B51EC100B05F01FFD05D89FEDD60B68
:1009A000D44880ED0A0B14E0D24890ED0A1BB0EE5B
:1009B000410AF0EE610A9FEDD21B53EC112B51EC72
:1009C000100B05F043FE04D89FEDCD0BC94880ED18
:1009D0000A0BC84890ED0A1BB0EE410AF0EE610A1E
:1009E00051EC100B05F0B2FCC74901EB800090ED13
:1009F000000AF2EE040A20EE200A10EE104A204609
:100A000005F050FFC14A03C210BD2DE9F0412DEDA4
:100A10000A8BBF48007801282AD1BE48B0F90000EF
:100A200040004042BC49B1F90010884202DB01207D
:100A3000BA490870B748B0F900004000B649B1F9AA
:100A40000010884202DC0020B4490870B3480078E6
:100A5000012806D1B0480088401C00B2AE49088089
:100A60000CE0AD480088401E00B2AB49088005E0AC
:100A7000A748007810B90020A7490880A648B0F917
:100A80000000840204EBD4704010A249B1F90010B8
:100A900090FBF1F041F2D6310844A149B1F90010C0
:100AA0004518284605F081FC41EC180B9D49B1F929
:100AB000000005F07AFC41EC190B0021B0EE481A59
:100AC000F0EE681AB0EE490AF0EE690A964800F0B6
:100AD000B9FCFFF752FF954890ED000B53EC102B3B
:100AE000934890ED000B51EC100B05F023FA41EC0C
:100AF0001A0B8D4890ED101BB0EE410AF0EE610A22
:100B000053EC102B51EC1A0B05F014FA41EC190BB5
:100B10007E4890ED000B53EC102B51EC190B05F0B7
:100B200097FC41EC180B05F011FC00B281490880DC
:100B30007F4890ED000B51EC100B05F0BCF941EC37
:100B40001B0B7A4890ED000B53EC102B51EC1B0B58
:100B500005F0F0F941EC1A0B734890ED101BB0EE64
:100B6000410AF0EE610A53EC102B51EC1A0B05F020
:100B7000E1F941EC190B654890ED000B53EC102B9B
:100B800051EC190B05F064FC41EC180B05F0DEFB91
:100B900000B269490880644890ED101BB0EE410A2C
:100BA000F0EE610A9FED651B53EC112B51EC100B1D
:100BB00005F04EFC41EC1C0B9FED620B53EC102B2F
:100BC00005F06CFA41EC1A0B584890ED000B53EC11
:100BD000102B574890ED000B51EC100B05F078FDF1
:100BE00041EC1B0B53EC1A2B05F0A4F941EC190B4B
:100BF000464890ED000B53EC102B51EC190B05F00F
:100C000027FC41EC180B05F0A1FB00B24F4908800E
:100C1000454890ED101BB0EE410AF0EE610A9FEDE1
:100C2000471B53EC112B51EC100B05F011FC41EC60
:100C30001C0B9FED440B53EC102B05F02FFA41ECED
:100C40001B0B3B4890ED000B51EC100B05F033F9FA
:100C500041EC1C0B354890ED000B53EC102B51EC84
:100C60001C0B05F035FD41EC190B53EC1B2B05F06B
:100C700061F941EC1A0B254890ED000B53EC102B59
:100C800051EC1A0B05F0E4FB41EC180B05F05EFB90
:100C900000B22F4908802748B0F9000005F085FB15
:100CA00041EC180B2B49B1F9000005F07EFB41EC3B
:100CB000190B0021B0EE481AF0EE681AB0EE490A9E
:100CC000F0EE690A244800F0BDFB1B48B0F90000B3
:100CD00005F06BFB41EC180B204941E018000020A7
:100CE0001C08002028000020ED000020B8824242AD
:100CF00030000020E00A002000000000000000009A
:100D00000000000000004E40B069000870000020A4
:100D1000950000207E0000207C0000207A0000204A
:100D200080000020B8080020500300205000002060
:100D300048000020200000202200002000000000C9
:100D400000B0784000000000001073402400002034
:100D5000260000202C080020500100204808002018
:100D6000B1F9000005F021FB41EC190B0021B0EEB8
:100D7000481AF0EE681AB0EE490AF0EE690AFE4829
:100D800000F060FBFD48B0F9000005F00EFB41ECFF
:100D9000180BFB49B1F9000005F007FB41EC190BFA
:100DA0000021B0EE481AF0EE681AB0EE490AF0EEF3
:100DB000690AF44800F046FBF348B0F9000005F07A
:100DC000F4FA41EC180BF149B1F9000005F0EDFA25
:100DD00041EC190B0021B0EE481AF0EE681AB0EEA3
:100DE000490AF0EE690AEA4800F02CFBE84890ED69
:100DF000101BB0EE410AF0EE610A51EC100B05F049
:100E0000A5FA04B2DF4890ED101BB0EE410AF0EEF7
:100E1000610A51EC100B05F099FA05B2D64890ED35
:100E2000101BB0EE410AF0EE610A51EC100B05F018
:100E30008DFA06B2D74890ED101BB0EE410AF0EEE5
:100E4000610A51EC100B05F081FA07B223462A46DD
:100E50003146384601F0B1F9BDEC0A8BBDE8F081AE
:100E600070B52DED048BCC48007801285CD1CB48BF
:100E700090ED000ABDEEC00A10EE100A00B2C8499B
:100E80000880C848B0F9000000EE100AB8EEC00AA9
:100E9000C548D0ED000A30EE200ADFEDC40AB4EEFA
:100EA000E00AF1EE10FA0CDDBE48B0F90000C049CE
:100EB000081A00EE100AB8EEC00ABB4880ED000A1E
:100EC0001EE0B848B0F9000000EE100AB8EEC00A03
:100ED000B548D0ED000A30EE200ADFEDB60AB4EED8
:100EE000E00AF1EE10FA0BD2AE48B0F90000C0F5FE
:100EF000E16000EE100AB8EEC00AAB4880ED000ACF
:100F0000A848B0F9000000EE100AB8EEC00AA648E2
:100F1000D0ED000A30EE200ABDEEC00A10EE100A35
:100F200000B2A54908807CE09B480078002878D171
:100F3000A24890ED000ADFEDA20AB4EEE00AF1EE5D
:100F400010FA04D29FED9E0A80ED000A0DE09B4846
:100F500090ED000ADFED9B0AB4EEE00AF1EE10FA24
:100F600003DD9FED980A80ED000A944890ED000A99
:100F7000BDEEC00A10EE100A00B289490880894807
:100F8000B0F9000000EE100AB8EEC00A8E48D0EDAD
:100F9000000A30EE200ADFED850AB4EEE00AF1EE39
:100FA00010FA0CDD7F48B0F900008149081A00EE04
:100FB000100AB8EEC00A844880ED000A1EE07948A5
:100FC000B0F9000000EE100AB8EEC00A7E48D0ED7D
:100FD000000A30EE200ADFED770AB4EEE00AF1EE07
:100FE00010FA0BD26F48B0F90000C0F5E16000EED6
:100FF000100AB8EEC00A744880ED000A6948B0F9DA
:10100000000000EE100AB8EEC00A6F48D0ED000AEA
:1010100030EE200ABDEEC00A10EE100A00B266499A
:1010200008806548B0F9000005F0BFF941EC180BE5
:101030006649B1F9080005F0B8F941EC190B012136
:10104000B0EE481AF0EE681AB0EE490AF0EE690AFE
:101050005F4800F0F7F95E4890ED101BB0EE410AD2
:10106000F0EE610A51EC100B04F025FF41EC180B77
:101070005649B1F90E0005F098F941EC190B012120
:10108000B0EE481AF0EE681AB0EE490AF0EE690ABE
:10109000504800F0D7F94248B0F9000005F085F952
:1010A00041EC180B4C49B1F9000005F07EF941EC18
:1010B000190B0121B0EE481AF0EE681AB0EE490A99
:1010C000F0EE690A454800F0BDF94049B1F90A005F
:1010D00005F06BF941EC180B01211FEDF91BB0EE87
:1010E000480AF0EE680A3E4800F0ACF93D48B0F915
:1010F000000005F05AF941EC180B3B49B1F9140016
:1011000005F053F941EC190B0121B0EE481AF0EE4D
:10111000681AB0EE490AF0EE690A344800F092F914
:10112000324890ED101BB0EE410AF0EE610A51EC2E
:10113000100B04F0C0FE41EC180B2D49B1F9000072
:1011400005F033F941EC190B0121B0EE481AF0EE2D
:10115000681AB0EE490AF0EE690A264800F072F902
:10116000244890ED101BB0EE410AF0EE610A51ECFC
:10117000100B05F0EBF83FE0D00100202400002028
:101180006408002050020020260000208008002073
:10119000D0020020500100209C000020A000002070
:1011A0001C00002028000020A40000200000E144D2
:1011B000F8F8FFFF0000E1C41E000020AC00002092
:1011C00000803B4500C07345A80000201C0800209B
:1011D00050040020D0030020F0080020D00500209B
:1011E000500500209A00002028090020D006002089
:1011F0000C0900205006002004B2664890ED101B38
:10120000B0EE410AF0EE610A53EC102B9FED621B29
:1012100051EC110B05F05CFA41EC190B604890EDB4
:10122000101BB0EE410AF0EE610A53EC102B51ECAA
:10123000190B04F07FFE41EC180B05F087F805B29E
:10124000584890ED101BB0EE410AF0EE610A51ECE7
:10125000100B05F07BF806B222462946304600F016
:10126000DBFFBDEC048B70BD4F48C08E4F4908605A
:101270004F48007803280DD14E4800685A2809D1FC
:10128000084600684A4909780F2212FB01004749C5
:10129000086008E045480068454909781E2212FBAD
:1012A00001004249086044480078012829D1434898
:1012B0000078022825D13D4800685A2821DA3C48A8
:1012C0000078032807D13E480088A0F5526000B29C
:1012D0003B49088006E03A480088A0F2654000B229
:1012E000374908803648B0F90000002806DA34484B
:1012F000008800F5765000B23149088000202F495F
:1013000008702E48007838B92E4800682E490860C9
:1013100001202A4908700CE02A4800682A49096817
:10132000401ADC2805D900202349087002202349EF
:101330000870704710B5044601202449086024490C
:1013400008702146234804F0E6F82146214804F0BD
:10135000E4F821461F4804F0E2F821461D4804F055
:10136000E0F810BD10B50020184908601849087051
:101370003221184804F0CFF83221164804F0CDF895
:101380003221144804F0CBF83221124804F0C9F895
:1013900010BD0000D00500200000000000008940C2
:1013A00050050020D0030020E00A00202C0000207F
:1013B000B900002008010020BC0000209800002097
:1013C0009A0000201800002088000020B402434248
:1013D000BB000020000001402DED028B80ED000BD2
:1013E00080ED021B80ED042B80ED063B80ED084B69
:1013F00080ED0A5B80ED0C6B80ED0E7B9FEDFE8B2C
:1014000080ED108B9FEDFC8B80ED168B9FEDFA8BA2
:1014100080ED188B9FEDF88B80ED1A8B9FEDF68B8E
:1014200080ED1C8BBDEC028B7047F0EE400AF5EEB0
:10143000C00AF1EE10FA02DBB0EE600A7047B1EEBE
:10144000600AFBE770B52DED108B84B00446B0EE5A
:1014500040BAF0EE60BAB0EE418AF0EE618A0D4615
:101460009FEDE50BB0EE409AF0EE609A9FEDE20B37
:10147000B0EE40CAF0EE60CA9FEDDF0BB0EE40AABE
:10148000F0EE60AA94ED0E1BB0EE410AF0EE610A98
:1014900053EC102B51EC180B05F0D8F806D294ED54
:1014A0000E0BB0EE408AF0EE608A1CE094ED0E1B4D
:1014B000B0EE410AF0EE610A51EC100B04F0FBFCB7
:1014C00041EC1D0B53EC182B05F0C0F80BD294ED3A
:1014D0000E1BB0EE410AF0EE610A51EC100B04F065
:1014E000EAFC41EC180B53EC1B2B51EC180B05F0EC
:1014F000EFF8C4E91A01C248844264D194ED0E1B8E
:10150000B0EE410AF0EE610A9FEDBE1B53EC112BC9
:1015100051EC100B04F0C2FD41EC1D0B94ED1A1BB5
:10152000B0EE410AF0EE610A53EC102B04F054FFC8
:1015300014D294ED0E2BB0EE420AF0EE620A94ED56
:101540001A2BB0EE421AF0EE621A53EC102B51EC4B
:10155000110B05F0BDF8C4E91A0134E094ED0E1B3F
:10156000B0EE410AF0EE610A9FEDA61B53EC112B81
:1015700051EC100B04F092FD41EC1D0B94ED1A1B85
:10158000B0EE410AF0EE610A51EC100B04F093FC4E
:1015900041EC1E0B53EC1D2B05F058F813D294EDC3
:1015A0001A2BB0EE420AF0EE620A94ED0E2BB0EE6A
:1015B000421AF0EE621A53EC102B51EC110B04F0AE
:1015C000B9FCC4E91A019148844202D0904884428F
:1015D00062D194ED0E2BB0EE420AF0EE620A94ED69
:1015E0001A2BB0EE421AF0EE621A53EC102B51ECAB
:1015F000110B05F02BF81CD294ED0E1BB0EE410A36
:10160000F0EE610A53EC102B9FED7E1B51EC110B99
:1016100004F01EFF41EC1D0B94ED1A1BB0EE410AC5
:10162000F0EE610A53EC102B05F046F8C4E91A01FC
:1016300032E094ED1A1BB0EE410AF0EE610A51EC73
:10164000100B04F038FC41EC1D0B94ED0E1BB0EEBA
:10165000410AF0EE610A53EC102B04F0F7FF1BD2A5
:1016600094ED0E1BB0EE410AF0EE610A9FED651B92
:1016700053EC112B51EC100B04F0EAFE41EC1D0B66
:1016800094ED1A1BB0EE410AF0EE610A53EC102BF8
:1016900004F050FCC4E91A0194ED1A1BB0EE410AA3
:1016A000F0EE610A51EC100B04F012FC0DEE100A82
:1016B000B0EE4D0AFFF7B9FE10EE106A304605F0A5
:1016C000F1F841EC1E0B94ED0A1BB0EE410AF0EE6E
:1016D000610A53EC102B04F0B9FF7DD894ED1A1B6E
:1016E000B0EE410AF0EE610A51EC100B04F0F0FB91
:1016F0000DEE100AB0EE4D0AFFF797FEF2EE0E0A5D
:10170000B4EEE00AF1EE10FA20D894ED1A2BB0EE08
:10171000420AF0EE620A94ED022BB0EE421AF0EEAD
:10172000621A53EC102B51EC110B04F091FE41ECBA
:101730001D0B94ED1E1BB0EE410AF0EE610A53EC56
:10174000102B04F0F7FBC4E91E010FE094ED1E1B03
:10175000B0EE410AF0EE610A9FED2E1B53EC112B07
:1017600051EC100B04F074FEC4E91E0194ED0C2B37
:10177000B0EE420AF0EE620A94ED1E2BB0EE421A71
:10178000F0EE621A53EC102B51EC110B04F05EFFDB
:1017900004D294ED0C0B84ED1E0B24E094ED0C1B95
:1017A000B0EE410AF0EE610A51EC100B04F083FB3D
:1017B00041EC1D0B94ED1E1BB0EE410AF0EE610AE8
:1017C00053EC102B04F042FF0DD294ED0C1BB0EE45
:1017D000410AF0EE610A00E080E151EC100B04F0E8
:1017E0006AFBC4E91E01012D7DD194ED1A2BB0EEE8
:1017F000420AF0EE620A11E0000000000000000062
:10180000D00600200000000000000040500300202F
:1018100050040020AE47E17A14AEEF3F94ED002B68
:10182000B0EE421AF0EE621A53EC102B51EC110B91
:1018300004F00EFE41EC190BB04884421ED19FED1E
:10184000B00B53EC102B51EC190B04F0FFFE06D239
:101850009FEDAB0BB0EE409AF0EE609A0EE09FED7C
:10186000AA0B53EC102B51EC190B04F0B5FD05D26B
:101870009FEDA50BB0EE409AF0EE609A94ED1E0B32
:10188000B0EE40CAF0EE60CA94ED1C2BB0EE420AF6
:10189000F0EE620A94ED062BB0EE421AF0EE621AF8
:1018A00053EC102B51EC110B04F0D2FD41EC1D0B4D
:1018B00094ED182BB0EE420AF0EE620A94ED1A2B6A
:1018C000B0EE421AF0EE621A53EC102B51EC110BF1
:1018D00004F0FEFECDE9000194ED061BB0EE410AD6
:1018E000F0EE610A00E038E053EC102B9FED881B0E
:1018F00051EC110B04F0ECFE41EC1F0B9DED000BC5
:1019000053EC102B04F0A4FD41EC1E0B53EC1D2BEB
:1019100004F010FBCDE9020194ED041BB0EE410A86
:10192000F0EE610A53EC102B9DED021B51EC110BF4
:1019300004F08EFD41EC1A0B84ED1CAB53EC1C2B18
:1019400051EC190B04F0F6FA41EC1D0B53EC1A2B79
:1019500004F0F0FAC4E9100185E0002D7ED194ED89
:10196000182BB0EE420AF0EE620A94ED1A2BB0EE9C
:10197000421AF0EE621A53EC102B51EC110B04F0EA
:10198000A7FE41EC1D0B94ED001BB0EE410AF0EEFA
:10199000610A53EC102B04F05BFD41EC190B94ED44
:1019A0001A2BB0EE420AF0EE620A94ED022BB0EE72
:1019B000421AF0EE621A53EC102B51EC110B04F0AA
:1019C00047FD41EC1C0B94ED181BB0EE410AF0EE04
:1019D000610A1FED741B53EC112B51EC100B04F03A
:1019E00037FD41EC1F0B94ED1A1BB0EE410AF0EEEF
:1019F000610A53EC102B04F05FFE41EC1E0B94EDDA
:101A0000161BB0EE410AF0EE610A53EC102B04F005
:101A100091FA41EC1D0B94ED041BB0EE410AF0EE7F
:101A2000610A53EC102B04F013FD41EC1A0B53EC3C
:101A30001C2B51EC190B04F07DFA41EC1E0B53ECFE
:101A40001A2B04F077FA41EC1D0B94ED101BB0EE4D
:101A5000410AF0EE610A53EC102B00E003E004F0C1
:101A600069FAC4E9100194ED082BB0EE420AF0EED9
:101A7000620A94ED102BB0EE421AF0EE621A53ECAB
:101A8000102B51EC110B04F0E1FD03D294ED080B87
:101A900084ED100B94ED081BB0EE410AF0EE610AE4
:101AA00051EC100B04F007FA41EC1D0B94ED101BE8
:101AB000B0EE410AF0EE610A53EC102B04F0C6FDC3
:101AC00010D294ED081BB0EE410AF0EE610A51EC21
:101AD000100B04F0F0F9C4E9100103E01FEDBA0B9C
:101AE00084ED100B94ED180B84ED160B94ED1A0B8E
:101AF00084ED180B04B0BDEC108B70BD50040020B9
:101B00000000000000209C400000000000209CC05D
:101B1000000000000000F03F00B58FB00121AC488C
:101B200002F015F80121880402F058F80722092173
:101B3000A84801F0F6FD4FF400700D9002208DF8DA
:101B4000380000208DF83A0003208DF8390000207D
:101B50008DF83B000DA99F4801F058FD9E4802F00A
:101B600049F94FF4E13009900020ADF82800ADF8B4
:101B70002A00ADF82C000C20ADF82E000020ADF8A6
:101B8000300009A9944802F09CF90121924802F022
:101B900020FA01224021904802F0C8FA0C208DF86A
:101BA00038000B208DF8390000208DF83A00012014
:101BB0008DF83B000EA801F038FC884803F03CF893
:101BC0004FF0006000908448001D0190844802900E
:101BD0000020039014200490002005904FF48060B2
:101BE00006900020079008904FF4807009904FF401
:101BF00040300A9000200B900C900D900E9069469A
:101C0000764803F0BBF801221021744803F07DF9F7
:101C10000121724803F0ECF80FB000BD10B5714916
:101C20006E4803F08FF900287ED000206E490860CE
:101C30006E49086028E06E486C490968405C5A2883
:101C40001DD16A48006813280BD165480078A52883
:101C500015D166480068674908600120624908603C
:101C60000DE0634961480068401C085CA52806D166
:101C70005E4800685F49086001205B4908605B4876
:101C80000068401C59490860584800681428D2DB95
:101C90005548006801282BD100205449086023E0F2
:101CA0005248006853490968084414280BDA51481F
:101CB00000684E49096808444D49085C4E494B4A42
:101CC000126888540BE0494800684A49096808448A
:101CD00014384349095C4848444A126881544348CF
:101CE0000068401C41490860404800681428D7DB60
:101CF00000203E4908600CE039483C490968405CD6
:101D00003B493A4A1268885438480068401C3749B1
:101D10000860364800681428EEDB38480068401C2C
:101D200036490860364900E051E02C4803F0D9F804
:101D30002C492A4803F030F92F48007800062E4934
:101D4000497840EA01402C49897840EA01202A4933
:101D5000C97808432B490860084600682A49884228
:101D600035D12548C0792449097A40EA012001B2D9
:101D7000244881812048407A1F49897A40EA01201D
:101D800000B2204948811C48C07A1B49097B40EABF
:101D9000012001B21B48C1811748807B1649C97BCD
:101DA00040EA012001B21748C1801348007C124963
:101DB000497C40EA012000B2124988800E48807CAC
:101DC0000D49C97C40EA012001B20E48018110BDD5
:101DD00008002000000C024000480040286002403B
:101DE000D007002000880010E8000020E00000205C
:101DF000E9070020E400002002080020D8000020AD
:101E0000000800101C080020000EA55A1CB5012176
:101E1000102001F09CFE0121202001F098FE80207E
:101E2000009001208DF8040000208DF806000320AA
:101E30008DF8050001208DF8070069460F4801F074
:101E4000E5FB4FF48040009001208DF80400002055
:101E50008DF8060003208DF8050001208DF807009D
:101E60006946074801F0D2FB8021044801F04CFC90
:101E70004FF48041024801F045FC1CBD00100240B7
:101E8000001402401CB50121402001F060FE012039
:101E90008DF8040000208DF8060001208DF8050063
:101EA000400300906946044801F0B0FB4FF4005134
:101EB000014801F027FC1CBD001802401CB501219F
:101EC000082001F044FE4FF48060009000208DF85F
:101ED000040003208DF8050002208DF807006946F4
:101EE000164801F093FB1CBD10B5044614B1012047
:101EF0001349087012480078A0B14FF480610F4870
:101F000001F0E6FB01280DD10A2001F069FA00205A
:101F10000B4908704FF48061084801F0D9FB012893
:101F200009D110BD4FF48061044801F0D1FB10B914
:101F30000120034908700020F3E70000000C024074
:101F4000EC00002000B58BB00121082001F0FFFD5E
:101F50000121480601F042FE0320099002208DF87D
:101F6000280000208DF82A0003208DF82900012088
:101F70008DF82B0009A9C24801F048FB0922012174
:101F8000BF4801F0CEFB09220021BD4801F0C9FB8A
:101F900000208DF81E008DF81F008DF82000012014
:101FA0008DF8210000208DF822008DF823008DF897
:101FB0001A008DF81B0007208DF81C0005208DF8F5
:101FC0001D000320ADF8180006A9AE4802F055F92F
:101FD00000208DF812008DF8130001208DF81400F8
:101FE0000020ADF80800ADF80A00ADF80C00ADF81F
:101FF0000E00ADF8100001208DF8150002A802F0C7
:10200000C6F9012202219F4802F0C0FC14208DF87D
:10201000040009208DF8050000208DF8060001203D
:102020008DF8070001A801F000FA0BB000BD10B553
:10203000027C521C02740A7BCB7A42EA032264239C
:1020400092FBF3F212B20280B0F90020B0F9023034
:10205000D21A282A04DD428A521C12B242820BE0B4
:10206000B0F90020B0F90230D21A12F1280F03DAC9
:10207000428A521E12B24282B0F91220C02A02DBFA
:102080000022428205E0B0F91220002A01DABF22C4
:102090004282B0F90020438A522414FB0322038BAE
:1020A0001A4412B28282028842800022027410BD59
:1020B0008B7B4A7B43EA022212B2037C20F8132076
:1020C000027C521C0274027C012A01DD002202748F
:1020D00070470A7BCB7A42EA032212B202808B7BE2
:1020E0004A7B43EA022212B242800B7CCA7B43EA5B
:1020F000022212B2828070478B7B4A7B43EA022223
:1021000012B2037C20F81320027C521C0274027C61
:10211000032A01DD00220274704710B504462246EE
:102120000021584802F017FB2068A0F20120072880
:102130002CD2DFE800F004090E13181D22002146FE
:102140005148FFF7D9FF22E021465048FFF7D4FF5E
:102150001DE021464E48FFF7CFFF18E021464D48CD
:10216000FFF7CAFF13E021464B48FFF7B2FF0EE02E
:1021700021464A48FFF7ADFF09E021464848FFF7EE
:1021800097FF21464748FFF752FF00BF00BF00BF3F
:1021900010BD00B585B002213A4802F05FFC50B195
:1021A0000421384802F0F5FC3F49364802F033FC80
:1021B0006846FFF7B2FF05B000BDF0B585B0044634
:1021C0000D4616461F464FF40070009000208DF813
:1021D00008008DF8090008208DF80A00200A8DF803
:1021E0000B00E1B28DF80C10290A8DF80D10E9B240
:1021F0008DF80E10310A8DF80F10F1B28DF8101015
:10220000390A8DF81110F9B28DF8121069461D487F
:1022100002F0ACF905B0F0BD70B586B004460D46CD
:10222000164640F2FF10019000208DF80C008DF84A
:102230000D0008208DF80E00200A8DF80F008DF893
:102240001040290A8DF811108DF81250310A8DF8BE
:1022500013108DF8146000218DF815108DF81610EC
:1022600001A9084802F082F906B070BD0A7BCB7A5A
:1022700042EA0322642392FBF3F212B20283704714
:10228000000C0240006400402C0800204808002098
:102290006408002080080020B8080020F008002012
:1022A0000C090020280900200800003200B58FB07A
:1022B00001217B4801F04BFC0121102001F09FFC23
:1022C00007221146774801F02CFA80200D90022059
:1022D0008DF8380000208DF83A0003208DF8390081
:1022E00000208DF83B000DA96E4801F08FF96E4873
:1022F00001F080FD6D4809900020ADF82800ADF890
:102300002A004FF48060ADF82C000420ADF82E00B8
:102310000020ADF8300009A9634801F0D2FD012189
:10232000614801F056FE012240215F4801F0FEFEA7
:102330003A208DF838000C208DF8390000208DF8F7
:102340003A0001208DF83B000EA801F06EF85848C5
:1023500002F072FC4FF0006000905348001D0190A5
:102360005448029000200390122004900020059011
:102370004FF4806006900020079008904FF4807022
:1023800009904FF440300A9000200B900C900D9073
:102390000E906946464802F0F1FC012210214448A3
:1023A00002F0B3FD0121424802F022FD0FB000BD52
:1023B00010B541493E4802F0C5FD00286FD001200C
:1023C0003E4908704FF08151394802F08AFD3A4980
:1023D000374802F0E1FD374800783649497840EA4D
:1023E0000120C0F30A003649088032484078C01006
:1023F0003049897840EA4110C0F30A0030494880EA
:102400002C48807880112B49C97840EA81002949FD
:10241000097940EA8120C0F30A00294988802548CB
:10242000007940102349497940EAC110C0F30A00FD
:102430002349C8801F4840790011800808721D4850
:102440004079C0F3011048721A4880791949C97956
:1024500040EA012000B21A4948811648007A15491D
:10246000497A40EA012001B2154881811148807AF9
:102470001049C97A40EA012001B21148C1810D48D2
:10248000017B0F4801740B48417B0D48417409489A
:10249000807B0849C97B40EA01200949488210BD78
:1024A000020040000004024000100140A08601002C
:1024B000406402404409002000802010ED0000200C
:1024C0005E0900201FB50121022001F087FB4FF4B7
:1024D0007A7002905920ADF804000020ADF8060093
:1024E000ADF80C0001A9264802F027FE0122114692
:1024F000234803F0C3FA0121214802F0A7FE1D2062
:102500008DF8000008208DF8010000208DF80200F1
:1025100001208DF80300684600F087FF1FBD10B54D
:102520000121174803F0C1FA012801D1FEF7D8F9BB
:102530000121134803F0CAFA10BD0EB50121084667
:1025400001F04CFB4FF0FF3001905920ADF8000036
:102550000020ADF80800ADF802000121880702F064
:1025600057FE69464FF0804002F0E7FD01218807E1
:1025700002F06CFE0EBD4FF08040406A70470000D4
:102580000004004030B58BB0322400BF0121084662
:1025900001F0DDFA0121084601F031FB0121102094
:1025A00001F0D5FA02208DF8080000208DF80A000D
:1025B00003208DF8090001208DF80B004FF4C04076
:1025C000019001A9434801F021F801220D21414861
:1025D00001F0A7F801220E213E4801F0A2F80220E6
:1025E0008DF8080000208DF80A0003208DF80900FE
:1025F00001208DF80B004FF44070019001A936487E
:1026000001F004F801220821334801F08AF8012280
:102610000921314801F085F84FF47A7014FB00F07D
:102620002E490968B1FBF0F0401E85B240F2E73058
:102630000990ADF820500020ADF82800ADF8220038
:102640008DF82A0008A9264802F077FD6020ADF831
:102650000C000120ADF80E000020ADF81000059030
:10266000ADF818000820ADF81A004001ADF81C00C4
:102670000020ADF81E0003A9194802F0F3FD08215F
:10268000174802F07CFF03A9154802F024FE082138
:10269000134802F07DFF03A9114802F069FE0821EA
:1026A0000F4802F082FF03A90D4802F0C7FE08217F
:1026B0000B4802F083FF0121094803F0B8F901211A
:1026C000074802F0A5FD0121054802F0BFFD0BB04F
:1026D00030BD000000100240000002400000002059
:1026E0000000014010B588B004460121082001F027
:1026F0002EFA0121480401F071FA07220521FD4854
:1027000001F00FF807220621FA4801F00AF802202A
:102710008DF81C008DF81D0000208DF81E00012092
:102720008DF81F006020069006A9F24800F06EFFA9
:1027300002940020ADF80C00ADF80E00ADF81000CA
:10274000ADF814000C20ADF8120002A9EA4801F01F
:10275000B8FB0121E84801F03CFC4021E64801F0CB
:1027600020FD012240F22551E34801F0E8FC26203B
:102770008DF8040002208DF8050000208DF8060079
:1027800001208DF8070001A800F04FFE08B010BD31
:1027900010B5044600BF4021D74801F0F5FC0028E1
:1027A000F9D0C4F30800D449091D088010BD70B5E4
:1027B00005460E46002400BF03E0285DFFF7E8FF52
:1027C000641CB442F9DB70BD10B5044600BF402163
:1027D000CA4801F0D9FC0028F9D0C4F30800C74961
:1027E000091D088010BD70B505460E46002400BFC7
:1027F00003E0285DFFF7E8FF641CB442F9DB70BD1D
:1028000070B52DED068B40F22551BB4801F0D2FC8E
:10281000002871D0B848001D0088C4B240F225518C
:10282000B74801F002FDB748007858B98A2C52D158
:10283000B548B649097800EB811004700120B14910
:10284000087048E0AF48007801280FD18B2C09D1DF
:10285000AD48AE49097800EB811044700220A949C7
:10286000087038E00020A749087034E0A5480078D7
:1028700002280FD11C2C09D1A348A449097800EBE8
:102880008110847003209F49087024E000209D4936
:10289000087020E09B48007803280FD1AE2C09D1A6
:1028A00099489A49097800EB8110C4700420954931
:1028B000087010E00020934908700CE0924893499A
:1028C000097800EB81108F49097844548D480078CD
:1028D000401C8C4908708B48007820287DD100204E
:1028E000884908708948007838B100208749087005
:1028F00001208749087006E064E1012083490870DF
:1029000000208349087080488149097800EB8110D4
:1029100040797D497E4A127801EB8211097940EABB
:1029200001207C49088078487949097800EB8110BA
:10293000C0797549764A127801EB8211897940EAAB
:1029400001207549088070487149097800EB8110B1
:10295000417A6D486E4A127800EB8210007A41EAA3
:1029600000206E49088068486949097800EB8110A9
:10297000C07A6549664A127801EB8211897A40EA89
:1029800001206749088060486149097800EB81109F
:10299000417B5D485E4A127800EB8210007B41EA81
:1029A00000206049088058485949097800EB811097
:1029B000C17B5548564A127800EB8210807B41EA71
:1029C00000205949088050485149097800EB81108E
:1029D000407C4D494E4A127800E0F2E001EB821152
:1029E000097C40EA01205149088047484849097854
:1029F00000EB8110C07C4449454A127801EB8211FA
:102A0000897C40EA01204A4908803F4840490978CA
:102A100000EB8110407D3C493D4A127801EB821168
:102A2000097D40EA0120434908803F48008800EEC4
:102A3000100AB8EE400ADFED400A80EE201A11EECF
:102A4000105A284603F02EFF41EC180B3548008839
:102A500000EE100AB8EE400ADFED370A80EE201AC9
:102A600011EE105A284603F01DFF41EC190B2C48BB
:102A7000008800EE100AB8EE400ADFED2F0A80EE63
:102A8000201A11EE105A284603F00CFF41EC1A0BE5
:102A90009FED2A7B9FED2B6B9FED2C5B9FED294BD0
:102AA0009FED2A3BB0EE482AF0EE682AB0EE491AB4
:102AB000F0EE691AB0EE4A0AF0EE6A0A2548FEF70F
:102AC0008BFC1C48008800EE100AB8EE400ADFEDCF
:102AD0001A0A80EE201A11EE105A284603F0E2FE80
:102AE00041EC180B1248008800EE100AB8EE400ABC
:102AF00032E00000000C024000440040001401409D
:102B000000480040F300002094090020F20000205B
:102B1000F4000020F6000020F8000020FA00002059
:102B2000FC000020FE000020000100200201002027
:102B300004010020060100200000C842000000003F
:102B4000004CCD40000000000040BF4000000000ED
:102B50000000000050050020DFED700A80EE201A12
:102B600011EE105A284603F09DFE41EC190B6C48FB
:102B7000008800EE100AB8EE400A5FED110A80EE00
:102B8000201A11EE105A284603F08CFE41EC1A0B65
:102B90001FED167B1FED156B1FED145B1FED174B23
:102BA0009FED603BB0EE482AF0EE682AB0EE491A7D
:102BB000F0EE691AB0EE4A0AF0EE6A0A5B48FEF7D8
:102BC0000BFC00BFBDEC068B70BD2DE9F04707463E
:102BD0000E4690460024A1461C2E00DD1C26B8F1AE
:102BE000010F09D0B8F1020F09D0B8F1030F09D0D5
:102BF000B8F1040F0CD108E04FF0A10808E04FF045
:102C0000A20805E04FF0A30802E04FF0A40800BFBF
:102C100000BF88222046611CCCB245490A54204698
:102C2000611CCCB2424901F800807006020E2046B9
:102C3000611CCCB23E490A54002511E037F815005A
:102C4000C0F307222046611CCCB239490A5417F858
:102C500015202046611CCCB235490A54681CC5B207
:102C6000B542EBDB002506E03148405D484400F00A
:102C7000FF09681CC5B2A542F6DB2046611CCCB238
:102C80002B4901F8009021462948FFF790FDBDE847
:102C9000F0872DE9F04107460C4616461C2C00DD56
:102CA0001C24012E06D0022E06D0032E06D0042EA0
:102CB00008D105E0A12605E0A22603E0A32601E055
:102CC000A42600BF00BF8820194908700846467036
:102CD0008470002505E0795DE81C154A1154681CD4
:102CE000C5B2A542F7DB0021E01C114A11540025B2
:102CF0000AE0E01C0E49085C495D0844C1B2E01CD2
:102D00000B4A1154681CC5B2E01C8542F1DB201D42
:102D1000C1B20748FFF74BFDBDE8F08100401C46FB
:102D2000020100209A9999999999E93FD0050020CC
:102D3000720900201CB50121102000F008FF20209E
:102D4000009001208DF8040000208DF8060003207B
:102D50008DF8050002208DF807006946044800F050
:102D600055FC1CBD10B52021014800F0CBFC10BD66
:102D70000010024000B58FB09FEDFE0AFE4880EDC6
:102D8000010A9FEDFE0A80ED020A40F2DC50FA498A
:102D900088819FEDFB0A084680ED060A01214FF06D
:102DA000401000F0D4FE0121202000F028FF08226E
:102DB0000921F44800F0B5FC4FF400700D9002209A
:102DC0008DF8380000208DF83A0003208DF8390086
:102DD00000208DF83B000DA9EA4800F017FCEA48F6
:102DE00001F008F84FF4E13008900020ADF824001D
:102DF000ADF82600ADF828000420ADF82A00002028
:102E0000ADF82C0008A9E04801F05BF80121DE488C
:102E100001F0DFF847208DF8300001208DF83300F5
:102E20000A208DF8310000208DF832000CA800F047
:102E3000FCFA012240F22441D34801F080F901223A
:102E40004021D14801F072F9D04801F0F5FE4FF071
:102E500020600090CC48001D0190CD4802900020D9
:102E6000039096200490002005904FF48060069017
:102E700000200790089009904FF480300A900020BD
:102E80000B9003200C9000200D900E906946BF48D7
:102E900001F074FF0121BD4801F0AAFF0FB000BD91
:102EA00030B5034605E013F8010B80EA0204B94887
:102EB000025D0800A1F10101F5D1104630BD70B5E9
:102EC00005460C4600260DB1022C01D8002070BD2D
:102ED000611EFF222846FFF7E3FF0646601E285CBE
:102EE000B04201D10120F2E70020F0E770B50546BD
:102EF0000C4600260DB1022C00D870BD611EFF22C9
:102F00002846FFF7CDFF0646601E2E5400BFF4E7AB
:102F100030B5034613B94FF6FF7030BD09E013F822
:102F2000014B82EA0400C0B29B4D35F8100080EAE4
:102F300022220800A1F10101F1D11046EDE770B5A0
:102F400005460C4600260DB1022C01D8002070BDAC
:102F5000A11E924802882846FFF7DAFF0646F1B222
:102F6000A01E285C814206D1601E285CB0EB162FA3
:102F700001D10120EBE70020E9E770B505460C46DA
:102F800000260DB1022C00D870BDA11E8348028816
:102F90002846FFF7BDFF0646A01E2E54310A601ECC
:102FA000295400BFF0E737B50D46144618217C4878
:102FB00002F0FFFE7A487B490860A5200968088076
:102FC0007848006844807648BDF80010A0F80510E5
:102FD0000521FFF78BFF224629467148C01D02F0EC
:102FE00071FE04F109016E48FFF7C7FF3EBD10B541
:102FF00040F22441644801F0DDF800287ED06248A8
:103000000088694908706048001D00880870002128
:103010005E4801F0EDFE5E480078A52820D15C48AE
:10302000407908281CD119215948FFF788FF012849
:1030300016D15748807F012812D15548C0784E4993
:1030400008705348807A88865148C07A574908707A
:103050004F48007B48700846008800B24649888186
:103060004B480078A5281CD149484079012818D13F
:1030700011214748FFF763FF012812D14448C07867
:103080003D4908704248807A88864148C07A47495D
:1030900008703F48007B48700846008800B23649F7
:1030A00088813B480078A5280ED13948407902280C
:1030B0000AD10A213648FFF742FF012804D13448DB
:1030C000C0792D4981F83A0031480078A52875D19A
:1030D0002F4840790428FAD11D212D48FFF72FFFF2
:1030E0000128F4D12A48C078234908702848C079BB
:1030F0002F4908702648007A487000E0F8E024481C
:10310000407A88702248807AC870084690ED000A9C
:10311000194880ED010A1E48C07A264908701C48EB
:10312000007B48701A48407B88701948807BC870C3
:10313000084690ED000A104880ED020A1448C07B52
:103140001D4908701248007C48701148407C887006
:103150000F48807CC870084690ED000A064880ED54
:10316000060A90ED010AD0ED020A20EE200A10EEC8
:10317000101A24E09A99C941E00A002000000000DA
:103180000000704200180240001401402864024010
:10319000440A0020A56A0008A66B00082C01002044
:1031A0002E0B0020280100203401002024010020E3
:1031B0000C010020100100201401002060E00846EE
:1031C00003F070FB4B4AC2E908014B48C07C4B49F5
:1031D00008704948007D48704748407D88704648DF
:1031E000807DC870084690ED000A10EE101A08465F
:1031F00003F058FB3F4AC2E90A013F48C07D4049FD
:1032000008703D48007E4870084600881146C88610
:103210003948407E3B4908703748807E48700846F0
:103220000088114608873448407FA52828D13248B5
:1032300090F82200082823D12F4890F83600A528BE
:103240001ED12D4890F83B00012819D11D212A4894
:103250003630FFF774FE012812D12748C07825497F
:1032600008702548807A88862348C07A26490870E5
:103270002148007B48700846008800B21D498881BB
:103280001D480078A5281CD10F211B48FFF757FEC9
:10329000012816D118484079032812D11648407ADF
:1032A0001A4908701448807A48701348C07A8870A8
:1032B0001148007BC870084690ED000A0D4880ED6B
:1032C000040A40F22441124800F0AFFF11491248AD
:1032D00001F007FE00BF104801F0D7FD0028FAD129
:1032E00096210D4801F0A5FD01210B4801F080FD5C
:1032F00010BD0000E00A0020440A00201C0100204C
:1033000020010020220100202401002018010020BB
:1033100000140140000C00102864024010B504465F
:103320006FF0040000F0CEF8E11704EB5171C1F327
:10333000C701394A11701046007800EB4001C1EB1B
:10334000C0104FF6FF7101EAC0003449088010BD7B
:103350000146314A12784A434FF0E0235A61002275
:103360009A611A46126942F001021A6100BF4FF0D9
:10337000E022106900F001021AB100F48032002A44
:10338000F5D04FF0E022126922F001024FF0E02365
:103390001A6100229A6170470146204A12884A4306
:1033A0004FF0E0235A6100229A611A46126942F0F6
:1033B00001021A6100BF4FF0E022106900F0010223
:1033C0001AB100F48032002AF5D04FF0E0221269E1
:1033D00022F001024FF0E0231A6100229A61704747
:1033E00070B504464FF4077094FBF0F0C6B24FF48A
:1033F000077094FBF0F100FB114085B205E04FF43B
:103400000770FFF7C9FF701EC6B2002EF7D115B1C5
:103410002846FFF7C1FF70BD3601002038010020AB
:1034200032490143324A1160704770B500210023D0
:103430000F22C4781CB32E4C246804F4E064C4F555
:10344000E064C4F30721C1F10404E3B20A41447803
:103450009C40E1B28478144021430C07210E254C96
:1034600005786155047804F01F050124AC40057807
:103470006D11AD0005F1E025C5F8004109E00478C3
:1034800004F01F050124AC401B4D0678761145F869
:10349000264070BD194A0A400243154B1B1F1A6093
:1034A000704739B1124A121D12680243104B1B1D9E
:1034B0001A6006E00E4A121D126882430C4B1B1D57
:1034C0001A607047042808D14FF0E021096941F0E3
:1034D00004014FF0E022116107E04FF0E02109699B
:1034E00021F004014FF0E022116170470000FA055D
:1034F0000CED00E000E400E080E100E080FFFF1F51
:1035000010B504469848844208D10121084600F0CD
:1035100087FB0021012000F083FB76E09348844282
:1035200008D10121022000F07BFB0021022000F0E5
:1035300077FB6AE08E48844208D10121042000F024
:103540006FFB0021042000F06BFB5EE089488442A1
:1035500008D10121082000F063FB0021082000F0C1
:103560005FFB52E08448844208D10121102000F022
:1035700057FB0021102000F053FB46E07F488442B7
:1035800008D10121202000F04BFB0021202000F079
:1035900047FB3AE07A48844208D10121402000F0FC
:1035A0003FFB0021402000F03BFB2EE075488442A9
:1035B00008D10121802000F033FB0021802000F0A1
:1035C0002FFB22E07048844208D10121801500F0D1
:1035D00027FB0021A01500F023FB16E06B48844276
:1035E00008D10121401500F01BFB0021601500F0FF
:1035F00017FB0AE06648844207D10121001500F05C
:103600000FFB0021201500F00BFB10BDF0B50A46A2
:1036100000210023002400BF3DE0012505FA01F34D
:10362000156805EA03049C4234D105684F0003265F
:10363000BE40B543056015794E00B5400668354378
:1036400005601579012D02D01579022D16D18568F6
:103650004F000326BE40B543856055794E00B54006
:10366000866835438560456801268E40B5434560D0
:10367000456896798E40B6B235434560C5684F00BF
:103680000326BE40B543C560D5794E00B540C66837
:103690003543C560491C1029BFD3F0BD4FF6FF71FB
:1036A00001600021017141718171C171704708B5DC
:1036B0004FF480320092009A0A430092009AC2614D
:1036C000C161009AC261C2690092C269009208BDDC
:1036D0000246002013690B400BB1012000E00020DE
:1036E00070470146086980B270470246002053695E
:1036F0000B400BB1012000E00020704701464869F3
:1037000080B2704701837047418370470AB10183DB
:1037100000E0418370474161704742694A4042611D
:103720007047F0B5002300244D07ED0E02FA05F3B3
:10373000CE1000F1200555F826504E07F70E0F2643
:10374000BE40B543CF1000F1200646F82750CE10FA
:1037500000F1200555F8265045EA0304CE1000F18B
:10376000200545F82640F0BD00000240000402405C
:1037700000080240000C0240001002400014024009
:1037800000180240001C02400020024000240240B9
:1037900000280240F648006840F00100F449086043
:1037A0000020F34908310860F1480068F1490840F9
:1037B000EF490860F048091D0860F048EC49843181
:1037C0000860ED481038091D0860E948006820F4D9
:1037D0008020E74908600020E5490C310860E44991
:1037E0008C31086070470021E14A921C117011462B
:1037F0000870704710B501460022002300204A11CE
:10380000012A02D1DA4C236808E0022A03D1D84CFD
:103810007034236802E0D64C7434236801F01F0230
:10382000012494401C400CB1012000E0002010BD98
:1038300038B5002000900024002500BF3120FFF79C
:10384000D9FF05460098401C00900098B0F5A04FA5
:1038500001D0002DF2D03120FFF7CCFF08B10124B8
:1038600000E00024204638BD01460020C04A106810
:1038700020F0F80040EAC10010607047C0490860BD
:1038800070470021BA4A703211701170012802D0BD
:1038900004280AD104E00121B54A7032117005E014
:1038A0000521B34A7032117000E000BF00BF7047BD
:1038B000B4490860704770B5049C41EA821501263E
:1038C000C6EB530645EA0645054345EA0465A84E9E
:1038D000361D356070BDAA490866704710B5830172
:1038E00043EA016343EA0273A14C8434236010BDB0
:1038F000A3498866704710B5830143EA016343EA30
:1039000002739B4C8834236010BD9D490867704743
:103910009B49C864704702460020954B08331868DD
:1039200020F0EC6042EA01031843914B0833186021
:103930007047024600208E4B0833186820F078400C
:1039400042EA010318438A4B083318607047014666
:103950000020874A0832106820F0030008431060F6
:10396000704783480830006800F00C00704701463B
:1039700000207F4A0832106820F0F00008431060F1
:103980007047014600207A4A0832106820F4E0505F
:1039900008431060704701460020754A08321068DD
:1039A00020F4604040EAC10010607047F0B500218B
:1039B000002200240225002602236D4F08373F68AD
:1039C00007F00C0121B1042905D0082937D105E001
:1039D0006D4F076036E06D4F076033E0644F3F1D69
:1039E0003F68C7F38056624F3F1D3F6807F03F03B3
:1039F0006EB1664FB7FBF3F7DFF874C10CF1040C3E
:103A0000DCF800C0CCF3881C07FB0CF40CE05E4F24
:103A1000B7FBF3F7DFF858C10CF1040CDCF800C079
:103A2000CCF3881C07FB0CF4514F3F1D3F68C7F3D4
:103A300001477F1C7D00B4FBF5F7076002E0524FA1
:103A4000076000BF00BF4A4F08373F6807F0F0012A
:103A500009094F4F7A5C0768D7404760444F0837E1
:103A60003F6807F4E051890A494F7A5C4768D740BC
:103A700087603F4F08373F6807F46041490B444F68
:103A80007A5C4768D740C760F0BD002100F44072FF
:103A9000B2F5407F0AD1364A0832116821F4F81194
:103AA0003C4A02401143324A08321160304A7032B7
:103AB0001268C0F30B031A432D4B70331A60704722
:103AC00030494439086070472E49403908607047D2
:103AD00031490860704701460020254A8C32106841
:103AE00020F01F004A1E1043214A8C32106070479C
:103AF000014600201E4A8C32106820F4F8504A1EFD
:103B000040EA02201A4A8C321060704701460020B9
:103B1000174A8C32106820F4401008431060704738
:103B200001460020124A8C32106820F440000843FD
:103B300010607047014600200D4A8C32106820F456
:103B4000403008431060704714490860704739B12D
:103B5000074A303212680243054B30331A6006E0E0
:103B6000034A303212688243014B30331A60704787
:103B700000380240FFFFF6EA103000240030002039
:103B800000004742800E47420024F400001BB700AB
:103B90003A010020FFFCFF0F5C014742E011474261
:103BA00029B1934A12680243914B1A6004E0904A8B
:103BB000126882438E4B1A60704739B18C4A121DCD
:103BC000126802438A4B1B1D1A6006E0884A121DC8
:103BD00012688243864B1B1D1A60704739B1844AB4
:103BE0000C3212680243824B0C331A6006E0804AA2
:103BF0000C32126882437E4B0C331A60704739B125
:103C00007B4A103212680243794B10331A6006E087
:103C1000774A103212688243754B10331A6070472E
:103C200039B1734A243A12680243714B243B1A603B
:103C300006E06F4A243A126882436D4B243B1A60B7
:103C4000704739B16A4A203A12680243684B203BF8
:103C50001A6006E0664A203A12688243644B203BB1
:103C60001A60704739B1624A1C3A12680243604BCD
:103C70001C3B1A6006E05E4A1C3A126882435C4BA9
:103C80001C3B1A60704739B1594A143A1268024312
:103C9000574B143B1A6006E0554A143A12688243A7
:103CA000534B143B1A60704739B1514A103A1268AD
:103CB00002434F4B103B1A6006E04D4A103A12681F
:103CC00082434B4B103B1A60704739B1484A1C3253
:103CD00012680243464B1C331A6006E0444A1C3209
:103CE00012688243424B1C331A60704739B1404A14
:103CF0002032126802433E4B20331A6006E03C4AF1
:103D00002032126882433A4B20331A60704739B12F
:103D1000374A243212680243354B24331A6006E0D6
:103D2000334A243212688243314B24331A6070477D
:103D300039B12F4A2C32126802432D4B2C331A60B2
:103D400006E02B4A2C3212688243294B2C331A602E
:103D5000704739B1264A303212680243244B30335F
:103D60001A6006E0224A303212688243204B303318
:103D70001A607047012808D11D493C31096841F09B
:103D800008011B4A3C32116007E019493C310968BF
:103D900021F00801164A3C321160704739B1144ACB
:103DA000273A12780243124B273B1A7006E0104A5A
:103DB000273A127882430E4B273B1A7070470C4803
:103DC0004030006840F08070094940310860704719
:103DD00001460020064A283A12680A400AB101202A
:103DE00000E0002070470249263908707047000043
:103DF0003438024010B50446FA48844208D1012103
:103E00001020FFF751FF00211020FFF74DFF57E072
:103E1000F548844209D101214804FFF734FF00210D
:103E20004FF40030FFF72FFF4AE0F048844209D1F9
:103E300001218804FFF727FF00214FF48020FFF7BE
:103E400022FF3DE0EA48844209D10121C804FFF77E
:103E50001AFF00214FF40020FFF715FF30E0E5487E
:103E6000844209D101210805FFF70DFF00214FF41D
:103E70008010FFF708FF23E0DF48844208D10121CA
:103E80002020FFF711FF00212020FFF70DFF17E092
:103E9000DA48844209D101218807FFF7F4FE0021A6
:103EA0004FF08040FFF7EFFE0AE0D548844207D18B
:103EB00001214005FFF7E7FE00216005FFF7E3FE63
:103EC00010BD2DE9FF4705460E460024A14600BF60
:103ED000A046B08900B100BF2C8A24F44054F08879
:103EE00004432C82AC8941F20C608443B088318950
:103EF0000843718908430443AC81AC8A24F44074BC
:103F0000B0890443AC826846FFF750FDB54885424E
:103F100002D0B948854202D1DDF80C9001E0DDF80D
:103F20000890A88900F4004040B109EBC90000EBFB
:103F3000091031684900B0FBF1F707E009EBC9004F
:103F400000EB091031688900B0FBF1F76420B7FB82
:103F5000F0F004012009642101FB1078A88900F425
:103F6000004040B1322000EBC800B0FBF1F000F09F
:103F70000700044308E0322000EB08106421B0FB86
:103F8000F1F000F00F0004432C81BDE8FF874FF4EF
:103F90001651016000218180C18001810C21418185
:103FA00000218181704710B502460020108A20F45C
:103FB00070600B884C8823438C882343CC88234330
:103FC0001843108210BD0021018041808180C18092
:103FD000704721B1828942F40052828104E08289D3
:103FE0004DF6FF731A4082817047028B02F47F42C4
:103FF0000283028B0A430283704721B1828942F413
:104000000042828103E08289C2F30E0282817047FE
:1040100021B1828A42F40062828204E0828A4FF2F5
:10402000FF731A4082827047C1F308028280704792
:1040300001468888C0F308007047028A4FF6F07383
:104040001A400282028A0A430282704721B18289A1
:1040500042F00202828104E082894FF6FD731A4029
:104060008281704782894FF2FF731A408281828970
:104070000A4382817047028A4FF6DF731A40028238
:10408000028A0A430282704721B1028A42F48042C6
:10409000028204E0028A4BF6FF731A4002827047E4
:1040A000818941F001018181704721B1828A42F00A
:1040B0000802828204E0828A4FF6F7731A408282F5
:1040C0007047028BD2B20283028B42EA0122028342
:1040D000704721B1828A42F02002828204E0828A03
:1040E0004FF6DF731A408282704721B1828A42F014
:1040F0001002828204E0828A4FF6EF731A408282B5
:104100007047828A4FF6FB731A408282828A0A4382
:104110008282704721B1828A42F00202828204E0E8
:10412000828A4FF6FD731A40828270471AB1838AE1
:104130000B43838202E0838A8B4383827047F0B50E
:104140000346002400260025002040F66A17B942E5
:1041500000D100BF1846C1F3421401F01F06012729
:1041600007FA06F5012C01D10C3004E0022C01D134
:10417000103000E014301AB107682F43076002E0E6
:104180000768AF430760F0BD02460020B1F5007F2D
:1041900000D100BF13880B400BB1012000E00020CC
:1041A000704701F40072B2F5007F00D100BFCA432E
:1041B0000280704770B502460024002300250020CD
:1041C00040F66A16B14200D100BFC1F3421501F0BA
:1041D0001F03012606FA03F3012D13D196893340FC
:1041E00017E000000010014000440040004800407B
:1041F000004C004000500040001401400078004096
:10420000007C0040022D02D1168A334001E0968ADC
:1042100033400C12012606FA04F41688344013B118
:104220000CB1012000E0002070BD10B50022002379
:1042300040F66A14A14200D100BF0A120124944042
:10424000A3B2DC43048010BD10B50446FE4884428E
:1042500009D101214806FFF716FD00214FF000703B
:10426000FFF711FD08E001218806FFF70CFD002192
:104270004FF08060FFF707FD10BD30B5024600200B
:104280000023146824F002041460146844F001044C
:10429000146000E05B1C546804F001041CB94FF684
:1042A000FF74A342F6D1546804F001040CB9002055
:1042B0006CE08C79012C04D1146844F08004146003
:1042C00003E0146824F080041460CC79012C04D13C
:1042D000146844F04004146003E0146824F04004BF
:1042E00014600C7A012C04D1146844F0200414608A
:1042F00003E0146824F0200414604C7A012C04D1EB
:10430000146844F01004146003E0146824F01004EE
:1043100014608C7A012C04D1146844F008041460F1
:1043200003E0146824F008041460CC7A012C04D152
:10433000146844F00404146003E0146824F00404D6
:1043400014608C78A407CD7844EA05640D7944EABA
:1043500005444D7944EA05540D886D1E2C43D46103
:10436000146824F001041460002300E05B1C54680E
:1043700004F001041CB14FF6FF74A342F6D1546857
:1043800004F001040CB1002000E0012030BD10B5A4
:104390000021837A012202FA03F1AC4A126842F04A
:1043A0000102AA4B1A60A94A1C3212688A43A74B21
:1043B0001C331A60027BCAB9A44A0C3212688A43C1
:1043C000A24B0C331A604288C38842EA03439F4AD7
:1043D0004032847A42F834300288838842EA0343C8
:1043E0009A4A4032847A02EBC4025360027B012A6B
:1043F00019D1964A0C3212680A43944B0C331A6056
:104400004288038842EA0343904A4032847A42F861
:104410003430C288838842EA03438C4A4032847A2B
:1044200002EBC4025360C27A3AB9884A121D12687C
:104430008A43864B1B1D1A6006E0844A121D1268CF
:104440000A43824B1B1D1A60028932B97F4A14321B
:1044500012688A437D4B14331A600289012A06D1FF
:104460007A4A143212680A43784B14331A60427B3A
:10447000012A06D1754A1C3212680A43734B1C3359
:104480001A60724A126822F00102704B1A6010BD65
:1044900000218171C171017241728172C17281709A
:1044A000C170032101710221417101210180704716
:1044B0006649096841F00101644A116011460968C2
:1044C00043F60E729143614A11601146096841EA50
:1044D000002111601146096821F001011160704747
:1044E00021B1026842F48032026003E0026822F4E3
:1044F000803202607047E1B1026842F080020260DF
:104500004FF4C272125842F480734FF4C2721350C7
:104510004FF4CA72125842F480734FF4CA721350A7
:104520004FF4D272125842F480734FF4D272135087
:104530001BE0026822F0800202604FF4C27212583F
:1045400022F480734FF4C27213504FF4CA7212589F
:1045500022F480734FF4CA7213504FF4D27212587F
:1045600022F480734FF4D2721350704710B5024694
:104570000020936803F08063B3F1806F00D110E0F6
:10458000936803F00063B3F1006F01D1012008E0EC
:10459000936803F08053B3F1805F01D1022000E003
:1045A0000420042879D002F5C07303EB00131B68C4
:1045B00003F0010402F5C07303EB00131C600B7AD7
:1045C0007BB94B7A0C8843EA445302F5C07404EB80
:1045D00000142468234302F5C07404EB0014236024
:1045E00010E00B7A4C6843EAC4034C7A234302F58B
:1045F000C07404EB00142468234302F5C07404EB78
:10460000001423608B7A03F00F038B7202F5C073E2
:1046100003EB00135B6823F00F0402F5C07303EB98
:1046200000135C6002F5C07303EB00135B688C7AC7
:10463000234302F5C07404EB001463608B7B1C06FB
:104640004B7B44EA034403E0006400400066004002
:104650000B7B44EA0323CC7A234302F5C07404EBBA
:104660000014A3608B7C1C064B7C44EA03440B7C47
:1046700044EA0323CC7B234302F5C07404EB00140B
:10468000E36002F5C07303EB00131B6843F0010401
:1046900002F5C07303EB00131C6010BD10B5024699
:1046A000002321B1012907D002290FD109E0906828
:1046B000F94C00EA04030BE09068F84C00EA0403AC
:1046C00006E09068F64C00EA040301E0002300BF16
:1046D00000BFF44C181BA34216D007DC83B16FF067
:1046E0008060184470B1022818D111E0B0F5007F45
:1046F00010D0ED4C204448B1B0F5003F0ED10BE096
:1047000002230DE000230BE0002309E0002307E073
:10471000012305E0012303E0012301E0002300BFA2
:1047200000BFD8B210BD21B1012907D002290FD195
:1047300009E0826842F0800282600AE0826842F406
:104740000042826005E0826842F40002826000E07C
:1047500000BF00BF704710B500F5D87303EB01131D
:104760001B6803F004031372137A53B900F5D8736E
:1047700003EB01131B6840F2FF7404EA5353136008
:1047800009E000F5D87303EB01131B686FF0604478
:1047900004EAD303536000F5D87303EB01131B68DD
:1047A00003F00203537200F5D87303EB01135B6847
:1047B00003F00F03937200F5D87303EB01135B68EA
:1047C0001B0AD37400F5D87303EB01139B68D372F3
:1047D00000F5D87303EB01139B681C0A147300F5F2
:1047E000D87303EB01139B681C0C547300F5D8734A
:1047F00003EB01139B681B0E937300F5D87303EB57
:104800000113DB68D37300F5D87303EB0113DB6886
:104810001C0A147400F5D87303EB0113DB681C0C3D
:10482000547400F5D87303EB0113DB681B0E93740B
:1048300021B9C36843F02003C36003E0036943F078
:104840002003036110BD21B9C26842F02002C2609A
:1048500003E0026942F02002026170470246002034
:1048600019B9D36803F0030006E0012903D11369E5
:1048700003F0030000E00020704710B502460B462D
:1048800000204FF6FF71BBB9146824F0020444F015
:104890000104146000E0491E546804F00304012C74
:1048A00001D00029F7D1546804F00304012C01D091
:1048B000002032E0012030E0012B13D1146824F0F5
:1048C0000304146000E0491E546804F003040CB1B2
:1048D0000029F8D1546804F003040CB100201CE056
:1048E00001201AE0022B17D1146824F0010444F0CF
:1048F0000204146000E0491E546804F00304022C12
:1049000001D00029F7D1546804F00304022C01D02F
:10491000002002E0012000E0002010BD0146002040
:104920000A6822F0010242F002020A604A6802F0BC
:104930000302022A00D10120704701464FF6FF72A0
:1049400000200B6823F002030B6000E0521E4B684E
:1049500003F00203022B01D1002AF7D14B6803F0C8
:104960000203022B00D001207047014600208A6913
:1049700002F070007047014600208A69100E7047EF
:10498000014600208A69C2F3074070471AB14369A3
:104990000B43436102E043698B434361704710B5A9
:1049A0000246002001F4700343B19369C1F313047C
:1049B00023400BB101202DE000202BE001F080739B
:1049C00043B15368C1F3130423400BB1012021E02C
:1049D00000201FE001F0006343B19368C1F31304AA
:1049E00023400BB1012015E0002013E001F000731B
:1049F00043B1D368C1F3130423400BB1012009E094
:104A0000002007E01369C1F3130423400BB1012018
:104A100000E0002010BD0022244B994202D1002367
:104A2000836111E0C1F3130201F000730BB1C260A6
:104A30000AE001F080630BB1026105E001F0006360
:104A40000BB1826000E0426070470246002002EA3B
:104A500001030BB1012000E00020704770B504464F
:104A60000D46002660692840002872D0B5F5807F89
:104A700069D01DDC082D42D006DC012D2DD0022D81
:104A800031D0042D7FD134E0102D3ED0202D42D0E6
:104A9000402D78D145E00000030000040003000829
:104AA00000000310000100080001FFF77000F03063
:104AB000B5F5004F61D009DCB5F5007F4AD0B5F5FA
:104AC000806F4DD0B5F5006F5DD150E0B5F5803FFA
:104AD0002DD0B5F5003F56D12FE0A0685549FFF71E
:104AE000B4FF064651E0E0680321FFF7AEFF06463B
:104AF0004BE0E0680821FFF7A8FF064645E0E068C4
:104B00001021FFF7A2FF06463FE020690321FFF7CF
:104B10009CFF064639E020690821FFF796FF06460C
:104B200033E020691021FFF790FF06462DE0606812
:104B30000821FFF78AFF064627E060681021FFF78B
:104B400084FF064621E0A0690121FFF77EFF0646AB
:104B50001BE01BE0A0690221FFF777FF064614E087
:104B6000A0690421FFF771FF06460EE00BE0A06983
:104B70007021FFF76AFF064607E060680421FFF72F
:104B800064FF064601E0002600BF00E00026304634
:104B900070BDB1F5007F3AD00FDC202928D006DCAB
:104BA00001291CD004291DD0082940D11DE040292D
:104BB00021D0B1F5807F3AD126E0B1F5004F31D058
:104BC00006DCB1F5806F25D0B1F5006F2FD124E060
:104BD000B1F5803F12D0B1F5003F28D111E0154A60
:104BE000826025E00822C26022E01022C2601FE03D
:104BF000082202611CE01022026119E008224260D2
:104C000016E01022426013E00422426010E0042209
:104C100042600DE0042242600AE000228261042228
:104C2000426005E0002282610422426000E000BF91
:104C300000BF704701010100016821F0010101601E
:104C40000021016041608160C160016121214161F9
:104C5000DB49884204D13D21D94A103A91608CE069
:104C6000D7491831884205D14FF47461D44A103ABB
:104C7000916082E0D2493031884205D14FF47411FD
:104C8000CF4A103A916078E0CD494831884205D149
:104C90004FF07461CA4A103A91606EE0C8496031C1
:104CA000884204D1C749C64A103AD16065E0C44978
:104CB0007831884204D1C449C14A103AD1605CE0DD
:104CC000BF499031884204D1C049BD4A103AD160F1
:104CD00053E0BB49A831884205D14FF03D51B84A55
:104CE000103AD16049E0BA49884204D13D21B84A1E
:104CF000083A116041E0B6491831884205D14FF4B5
:104D00007461B34A083A116037E0B14930318842E2
:104D100005D14FF47411AE4A083A11602DE0AC4948
:104D20004831884205D14FF07461A94A083A1160B0
:104D300023E0A7496031884204D1A249A44A121F46
:104D400011601AE0A2497831884204D19E49A04AF4
:104D5000121F116011E09E499031884204D19B4995
:104D60009B4A121F116008E09949A831884204D17A
:104D70004FF03D51964A121F1160704710B5002246
:104D80000268944B1A40CC680B6823434C69234358
:104D90008C692343CC6923430C6A23434C6A234325
:104DA0008C6A23434C6B23438C6B23431A4302606E
:104DB000426922F00702D1E90B3423431A434261CE
:104DC0000B6943604B6883608B68C36010BD002132
:104DD000016041608160C160016141618161C161C7
:104DE000016241628162C162016341638163704714
:104DF00021B1026842F00102026003E0026822F081
:104E000001020260704721B1026842F40042026070
:104E100003E0026822F400420260704721B1026898
:104E200042F02002026003E0026822F020020260E9
:104E30007047416070470146486880B2704722B1B0
:104E4000036843F40023036003E0036823F40023B2
:104E500003600161704721B1026842F48022026060
:104E600003E0026822F48022026070470AB1016107
:104E700000E0C1607047014600200A6802F4002289
:104E80000AB1012000E000207047014600200A68B6
:104E900002F001020AB1012000E000207047014643
:104EA00000204A6902F03800704730B503460A46D0
:104EB00000200024464DAB4202D24149103901E0A6
:104EC0004349103902F000550DB14C6800E00C6800
:104ED000414D2C4004EA02050DB1012000E0002004
:104EE00030BD02463A4B9A4202D23548103801E0B2
:104EF0003748103801F000531BB1374B0B40C360EB
:104F000002E0354B0B408360704710B501F0800321
:104F10004BB122B1436943F08003436103E043692D
:104F200023F08003436180290BD02AB1036801F08C
:104F30001E042343036004E0036801F01E04A3433E
:104F4000036010BD70B50246002000240025204EED
:104F5000B24202D21A4B103B01E01D4B103B1F4ED8
:104F60000E4036B11E2606EAD124166806EA04056C
:104F700002E0566906F0800501F000560EB15C684B
:104F800000E01C68144E344004EA010616B10DB16D
:104F9000012000E0002070BD02460D4B9A4202D273
:104FA0000748103801E00A48103801F000531BB1DF
:104FB000094B0B40C36002E0074B0B408360704716
:104FC000106002403D000020400F002000003D2006
:104FD000106402403F801CF07D0F7D0F3C0F3C0FA2
:104FE00010B50446FE48844208D101210846FEF768
:104FF0005BFE00210120FEF757FE9DE0B4F1804FDB
:1050000008D101210846FEF73EFE00210120FEF7EF
:105010003AFE91E0F348844208D101210220FEF7D4
:1050200032FE00210220FEF72EFE85E0EE4884428B
:1050300008D101210420FEF726FE00210420FEF7FE
:1050400022FE79E0E948844208D101210820FEF7D8
:105050001AFE00210820FEF716FE6DE0E4488442A7
:1050600008D101211020FEF70EFE00211020FEF7CE
:105070000AFE61E0DF48844208D101212020FEF7CA
:1050800002FE00212020FEF7FEFD55E0DA488442B2
:1050900008D101210220FEF707FE00210220FEF7C1
:1050A00003FE49E0D548844209D101210804FEF7F6
:1050B000FBFD00214FF48030FEF7F6FD3CE0D048C8
:1050C000844209D101214804FEF7EEFD00214FF48E
:1050D0000030FEF7E9FD2FE0CA48844209D10121E2
:1050E0008804FEF7E1FD00214FF48020FEF7DCFD8F
:1050F00022E0C548844208D101214020FEF7C3FDCB
:1051000000214020FEF7BFFD16E0C048844208D1D0
:1051100001218020FEF7B7FD00218020FEF7B3FDBE
:105120000AE0BB48844207D101218015FEF7ABFDA0
:105130000021A015FEF7A7FD10BD00220288A84B94
:1051400098420ED0AC4B98420BD0B0F1804F08D0B3
:10515000A44B984205D0A44B984202D0A34B98424E
:1051600004D14FF68F731A404B881A43A04B9842D4
:1051700007D0A04B984204D04FF6FF431A400B894A
:105180001A4302804B68C3620B880385944B984294
:1051900002D0994B984201D18B7A038601238382F6
:1051A00070474FF0FF314160002101800181418053
:1051B000817270470185828270470A46002101880A
:1051C0004FF68F7319401143018070474162704759
:1051D000C16270470146486A70470146088D7047B2
:1051E00021B1028842F00202028004E002884FF6F8
:1051F000FD731A400280704721B1028842F0040218
:10520000028004E002884FF6FB731A400280704768
:1052100021B1028842F08002028004E002884FF649
:105220007F731A400280704702884FF6F7731A4066
:10523000028002880A430280704702884FF6FF43CB
:105240001A40028002880A430280704721B1028816
:1052500042F00102028004E002884FF6FE731A4019
:105260000280704770B5002400220023058C4FF6A1
:10527000FE7635400584028C8388048B4FF68F754B
:105280002C40B51E2C400D882C43751E2A408D895C
:105290002A434D882A43524DA84202D0564DA84277
:1052A00013D14FF6F7752A40CD892A434FF6FB7587
:1052B0002A408D882A434FF6FF652B404FF6FF5555
:1052C0002B400D8A2B434D8A2B43838004838D68AA
:1052D0004563028470BD70B5002400220023058C54
:1052E0004FF6EF7635400584028C8388048B48F6B0
:1052F000FF752C404FF6FF452C400D884FF6FF768A
:1053000006EA05252C434FF6DF752A408D8906EA0B
:1053100005152A434D8806EA05152A43304DA84253
:1053200002D0354DA8421DD14FF67F752A40CD8958
:105330004FF6FF7606EA05152A434FF6BF752A4059
:105340008D8806EA05152A434FF6FF352B404FF2AC
:10535000FF752B400D8A06EA85052B434D8A06EA28
:1053600085052B43838004838D688563028470BD2B
:1053700070B5002400220023058C4FF6FF663540EF
:105380000584028C8388848B4FF68F752C404FF6F2
:10539000FC752C400D882C434FF6FF552A408D8913
:1053A0004FF6FF7606EA05252A434D8806EA0525CD
:1053B0002A430B4DA84202D00F4DA84238D14FF2DC
:1053C000FF752A40CD894FF6FF7606EA05252A4368
:1053D0004FF6FF352A408D8806EA05252A4319E055
:1053E000000001400004004000080040000C0040A4
:1053F0000010004000140040000401400040014043
:10540000004401400048014000180040001C0040DA
:10541000002000404EF6FF752B404DF6FF752B40E7
:105420000D8A06EA05152B434D8A06EA05152B431E
:10543000838084838D68C563028470BD70B500224B
:1054400000230024058C4EF6FF7635400584038C3E
:105450008488828B48F6FF752A404FF6FF452A4024
:105460000D884FF6FF7606EA05252A434DF6FF75AF
:105470002B408D8906EA05352B434D8806EA053514
:105480002B43FE4DA84202D0FD4DA84208D14BF659
:10549000FF752C400D8A4FF6FF7606EA85152C43E2
:1054A000848082838D680564038470BD002101803F
:1054B0004180818081608181C18101824182704708
:1054C00070B50346002000241846183001258D4091
:1054D000ACB21D8CA5431D8409B108290AD100EB8B
:1054E000610005684FF68F76354005600568154305
:1054F00005600FE00D1FC5F34E052844056848F60A
:10550000FF763540056005684FF6FF7606EA02260D
:105510003543056070BD4163704781637047C16367
:105520007047016470470A460021018B4FF68F7364
:1055300019401143018370470A460021018B48F648
:10554000FF7319404FF6FF7303EA022319430183E7
:1055500070470A460021818B4FF68F731940114323
:10556000818370470A460021818B48F6FF731940FA
:105570004FF6FF7303EA02231943818370470A46FB
:105580000021018B4FF6F7731940114301837047D7
:105590000A460021018B4FF2FF7319404FF6FF734B
:1055A00003EA02231943018370470A460021818BD5
:1055B0004FF6F77319401143818370470A46002163
:1055C000818B4FF2FF7319404FF6FF7303EA0223FA
:1055D0001943818370470A460021018B4FF6FB7304
:1055E00019401143018370470A460021018B4FF691
:1055F000FF3319404FF6FF7303EA02231943018377
:1056000070470A460021818B4FF6FB731940114306
:10561000818370470A460021818B4FF6FF33194082
:105620004FF6FF7303EA02231943818370470A464A
:105630000021018B4FF67F7319401143018370479E
:105640000A460021018BC1F30E014FF6FF7303EAF6
:1056500002231943018370470A460021818B4FF6CC
:105660007F7319401143818370470A460021818B63
:10567000C1F30E014FF6FF7303EA0223194381833E
:1056800070470A460021018C4FF6FD731940114303
:10569000018470470A460021018C4FF6F7731940C8
:1056A0001143018470470A460021018C4FF6DF73D5
:1056B00019404FF6FF7303EA021319430184704740
:1056C0000A460021018C4FF67F7319404FF6FF7395
:1056D00003EA02131943018470470A460021018C32
:1056E0004FF6FF5319404FF6FF7303EA02231943A5
:1056F000018470470A460021018C4FF2FF73194064
:105700004FF6FF7303EA02231943018470470A46E8
:105710000021018C4DF6FF7319404FF6FF7303EA29
:10572000023319430184704730B5002301248C40B3
:10573000A3B2048C9C430484048C02FA01F5ADB23C
:105740002C43048430BD30B5002304248C40A3B224
:10575000048C9C430484048C02FA01F5ADB22C4302
:10576000048430BD828B4FF2FF331A408283828BD8
:105770004FF6FF7303EA01231A4382837047F0B5A3
:105780000C461546002100220026078C4EF6FF7CB1
:1057900007EA0C070784818B028C4FF6FF7707EA34
:1057A000043640F6FF4739404FF6FF7707EA0527F2
:1057B00039434FF6FF7707EA0337394345F6FF775A
:1057C0003A4046F480573A4381830284F0BD828B8D
:1057D0004FF6F3731A408283828B0A4382837047A9
:1057E000F0B50C461546002100220026078C4FF626
:1057F000FF6C07EA0C070784818B028C4FF6FF775A
:1058000007EA04264FF60C7739404FF6FF7707EA90
:1058100003172F4339434FF2FF573A4046F480773E
:105820003A4381830284F0BD028B4FF2FF331A406A
:105830000283028B4FF6FF7303EA01231A430283AC
:105840007047F0B50C461546002100220026078C53
:105850004FF6EF7C07EA0C070784018B028C4FF6AA
:10586000FF7707EA041640F6FF4739404FF6FF7707
:1058700007EA033739434FF6FF7703E000000140A2
:105880000004014007EA052739434FF65F773A40A5
:1058900046F010073A4301830284F0BD028B4FF6B5
:1058A000F3731A400283028B0A4302837047F0B5F8
:1058B0000C46154600210022068C4FF6FE773E402E
:1058C0000684018B028C4FF60C7631407E1C06EA72
:1058D00003162E4331434FF6F576324044F001066D
:1058E000324301830284F0BD70B505460C46208822
:1058F00050B92389A28861882846FFF7D8FFE1883C
:105900002846FFF7CBFF25E0208804280AD1238909
:10591000A28861882846FFF794FFE1882846FFF7B0
:1059200083FF17E0208808280AD12389A28861888C
:105930002846FFF755FFE1882846FFF748FF09E0B2
:105940002389A28861882846FFF719FFE188284645
:10595000FFF708FF70BD0021018041800121818097
:105960000021C180018170472DE9F04105460C46B8
:1059700000260127608808B9022600E00026A088DA
:10598000012801D1022700E001272088A0B923893E
:10599000A28861882846FFF78AFFE1882846FFF73A
:1059A0007DFF23893A4631462846FFF74AFFE188C2
:1059B0002846FFF739FF13E02389A288618828462B
:1059C000FFF73FFFE1882846FFF72EFF23893A467D
:1059D00031462846FFF76BFFE1882846FFF75EFF58
:1059E000BDE8F0810146486B70470146886B7047FF
:1059F0000146C86B70470146086C70470A884B889F
:105A00001A438B881A43CB881A430B891A434B8954
:105A10001A438B891A43A0F8442070470021018063
:105A200041808180C180018141818181704731B194
:105A3000B0F8442042F40042A0F8442005E0B0F859
:105A40004420C2F30E02A0F84420704721B182889E
:105A500042F00402828004E082884FF6FB731A4011
:105A60008280704721B1828842F00102828004E086
:105A700082884FF6FE731A40828070471AB183897C
:105A80000B43838102E083898B438381704781824A
:105A9000704702460020138A0B400BB1012000E042
:105AA00000207047CA430282704730B5024600208A
:105AB00000230024158A05EA0103958905EA0104FB
:105AC00013B10CB1012000E0002030BDCA430282B6
:105AD000704741EA0203A0F8483070471AB1838941
